:040000004EEF00F0CF
:060008005F82FFEF2BF008
:100018005F80D8CFCFF0E8CFD0F0E0CFD1F0E1CFFC
:10002800D2F0E2CFD3F0D9CFD4F0DACFD5F0F3CFF6
:10003800D6F0F4CFD7F0F6CFD8F0F7CFD9F0F8CF85
:10004800DAF0F5CFDBF0F2A02CEF00F02EEF00F0A5
:1000580032EF00F089EC22F027EF00F0DBC0F5FF6B
:10006800DAC0F8FFD9C0F7FFD8C0F6FFD7C0F4FF51
:10007800D6C0F3FFD5C0DAFFD4C0D9FFD3C0E2FFA2
:10008800D2C0E1FFD1C0E0FFD0C0E8FFCFC0D8FFA9
:080098005F90100085EF29F0D4
:10100000003332280C01060080494E495400256304
:10101000443D252E316620256300494E46004E4151
:101020004E00696E66006E616E006C660000000E18
:101030000001806F000E7F6F57C091F058C092F092
:1010400059C093F05AC094F094BF2BEF08F029EFE9
:1010500008F041EF08F0000E806F010E7F6F91C025
:1010600001F092C002F093C003F094C004F090EC41
:101070002BF001C091F002C092F003C093F004C0C5
:1010800094F0000E0001986F000E976FEAC083F095
:10109000EBC084F07F518011D8A451EF08F053EFDA
:1010A00008F05AEF08F0EEA558EF08F05AEF08F0F4
:1010B00074EF08F07F518011D8A461EF08F063EF5E
:1010C00008F069EF08F0000E666F2B0E656F6DEF8C
:1010D00008F0000E666F2D0E656F65C02DF1974B01
:1010E000982B8307D8A0840791C001F092C002F02A
:1010F00093C003F094C004F039EC25F00104021011
:10110000D8A485EF08F087EF08F0DEEF08F0BF0EF7
:101110000001606FFF0E616F5B50626F636B605127
:1011200062276151632363510AE11A0E625DD8A000
:101130009CEF08F09FEF08F0010EA0EF08F0000E02
:10114000676F686B67516811D8B4A9EF08F0ABEF0F
:1011500008F0B9EF08F02D0E9725016E010E9821C9
:10116000026E1A0E036E100E046E8AEC2AF0C5EFA2
:1011700008F02D0E9725016E010E9821026E220EA9
:10118000036E100E046E8AEC2AF00001FD0E832718
:10119000FF0E842355C011F056C012F02D0E136EB1
:1011A000010E146E83C015F084C016F05FEC27F0BA
:1011B00011C055F012C056F042EF0EF091C001F090
:1011C00092C002F093C003F094C004F039EC25F013
:1011D00001500210D8A4EFEF08F0F1EF08F031EF62
:1011E00009F0BF0E0001606FFF0E616F5B50626F10
:1011F000636B605162276151632363510AE11A0EE8
:10120000625DD8A006EF09F009EF09F0010E0AEFC0
:1012100009F0000E696F6A6B69516A11D8B413EF57
:1012200009F015EF09F023EF09F02D0E9725016E57
:10123000010E9821026E1E0E036E100E046E8AECD3
:101240002AF0C5EF08F02D0E9725016E010E9821AA
:10125000026E260E036E100E046E8AEC2AF0C5EFA5
:1012600008F0000E0001996F000E9A6F800E9B6FC0
:101270003F0E9C6F000E966F000E956F91C001F0AF
:1012800092C002F093C003F094C004F0000E056E0B
:10129000000E066E000E076E000E086E30EC29F090
:1012A000D8B055EF09F057EF09F0DAEF09F076EF13
:1012B00009F099C00FF09AC010F09BC011F09CC0CB
:1012C00012F0000E136E000E146E200E156E410EFD
:1012D000166EA4EC17F00FC099F010C09AF011C070
:1012E0009BF012C09CF00001954B962B91C028F00A
:1012F00092C029F093C02AF094C02BF0000E136E18
:10130000000E146E200E156E410E166E99C00FF071
:101310009AC010F09BC011F09CC012F0A4EC17F022
:101320000FC02CF010C02DF011C02EF012C02FF005
:10133000B7EC24F0D8B09FEF09F0A1EF09F059EF16
:1013400009F0C1EF09F099C028F09AC029F09BC0BC
:101350002AF09CC02BF0000E2C6E000E2D6E200E7D
:101360002E6E410E2F6E87EC1BF028C099F029C01D
:101370009AF02AC09BF02BC09CF000019507D8A0E2
:10138000960791C028F092C029F093C02AF094C02B
:101390002BF099C02CF09AC02DF09BC02EF09CC071
:1013A0002FF0B7EC24F0D8A0D8EF09F0DAEF09F06D
:1013B000A3EF09F05BC007F0086A5AEC2AF0075067
:1013C0000001866F86C085F0670E8619D8A4EBEF02
:1013D00009F0EDEF09F013EF0AF0EC51ED11D8A48C
:1013E000F4EF09F0F6EF09F0FAEF09F0000EED6FF7
:1013F000010EEC6FEDBF07EF0AF0ED5106E1EC05D1
:10140000D8B005EF0AF007EF0AF00DEF0AF0000E72
:10141000826F060E816F1CEF0AF0ECC081F0EDC008
:1014200082F01CEF0AF0EDBF18EF0AF01AEF0AF095
:1014300007EF0AF00DEF0AF0670E8619D8A423EF24
:101440000AF025EF0AF054EF0AF096AF33EF0AF0F6
:10145000FC0E955DFF0E9659D8A031EF0AF033EFE0
:101460000AF052EF0AF0FF0E606FFF0E616F81C04D
:1014700062F082C063F0605162276151632395512D
:10148000625D6351800A646F9651800A6459D8A0E6
:101490004CEF0AF04EEF0AF052EF0AF0660E856F3D
:1014A00054EF0AF0650E856F81C077F082C078F046
:1014B000670E8619D8A45FEF0AF061EF0AF071EFAA
:1014C0000AF0660E8519D8A468EF0AF06AEF0AF0F0
:1014D00073EF0AF096BF71EF0AF06FEF0AF073EF47
:1014E0000AF0774B782B660E8519D8A47AEF0AF0AC
:1014F0007CEF0AF09CEF0AF096BF83EF0AF081EFD1
:101500000AF08FEF0AF0000E996F000E9A6F800EAE
:101510009B6F3F0E9C6F000E966F000E956F670ECF
:101520008619D8B496EF0AF098EF0AF09CEF0AF00B
:101530009551772796517823000E906F000E8F6F8C
:1015400091C087F092C088F093C089F094C08AF06F
:1015500099C079F09AC07AF09BC07BF09CC07CF077
:101560002DEF0BF087C028F088C029F089C02AF041
:101570008AC02BF099C02CF09AC02DF09BC02EF0A1
:101580009CC02FF087EC1BF028C041F029C042F02E
:101590002AC043F02BC044F0F8EC1EF041C08BF0A1
:1015A00042C08CF043C08DF044C08EF08BC001F07F
:1015B0008CC002F08DC003F08EC004F034EC24F037
:1015C00001C07DF002C07EF087C028F088C029F0FD
:1015D00089C02AF08AC02BF099C013F09AC014F089
:1015E0009BC015F09CC016F08BC00FF08CC010F0A3
:1015F0008DC011F08EC012F0A4EC17F00FC02CF0CB
:1016000010C02DF011C02EF012C02FF02FEC2BF0D7
:1016100028C087F029C088F02AC089F02BC08AF042
:1016200099C028F09AC029F09BC02AF09CC02BF0EA
:10163000000E2C6E000E2D6E200E2E6E410E2F6EA3
:1016400087EC1BF028C099F029C09AF02AC09BF0C3
:101650002BC09CF000018F4B902B77518F5D9051E8
:10166000800A606F7851800A6059D8A03AEF0BF079
:101670003CEF0BF0B2EF0AF099C00FF09AC010F0F7
:101680009BC011F09CC012F0000E136E000E146E81
:10169000A00E156E400E166EA4EC17F00FC08BF066
:1016A00010C08CF011C08DF012C08EF087C028F0F1
:1016B00088C029F089C02AF08AC02BF08BC02CF09A
:1016C0008CC02DF08DC02EF08EC02FF0B7EC24F022
:1016D000D8B06DEF0BF06FEF0BF07AEF0BF0000E60
:1016E00000018B6F000E8C6F000E8D6F000E8E6FE1
:1016F000A3EF0BF087C001F088C002F089C003F0AF
:101700008AC004F08BC005F08CC006F08DC007F0D5
:101710008EC008F030EC29F0D8A091EF0BF093EFD9
:101720000BF0A3EF0BF000017DB199EF0BF09BEFF5
:101730000BF0A3EF0BF0000E8B6F000E8C6F000E02
:101740008D6F000E8E6F91C001F092C002F093C0B9
:1017500003F094C004F08BC005F08CC006F08DC07F
:1017600007F08EC008F02EEC13F001C087F002C025
:1017700088F003C089F004C08AF087C028F088C0D0
:1017800029F089C02AF08AC02BF0000E136E000EDB
:10179000146E200E156E410E166E79C00FF07AC0D1
:1017A00010F07BC011F07CC012F0A4EC17F00FC059
:1017B0002CF010C02DF011C02EF012C02FF0B7EC9D
:1017C00024F0D8A0E6EF0BF0E8EF0BF011EF0CF0EF
:1017D0000001954B962B79C00FF07AC010F07BC0BA
:1017E00011F07CC012F0000E136E000E146E200E6D
:1017F000156E410E166EA4EC17F00FC079F010C0F4
:101800007AF011C07BF012C07CF0660E00018519E1
:10181000D8A40DEF0CF00FEF0CF011EF0CF0774B9C
:10182000782B79C099F07AC09AF07BC09BF07CC08D
:101830009CF0650E00018519D8B421EF0CF023EF60
:101840000CF029EF0CF095C075F096C076F02DEFF6
:101850000CF0000E766F000E756F000E746F000EA8
:10186000736F000E726F000E716F000E906F000E9E
:101870008F6F28EF0DF087C028F088C029F089C04D
:101880002AF08AC02BF099C02CF09AC02DF09BC092
:101890002EF09CC02FF087EC1BF028C041F029C02F
:1018A00042F02AC043F02BC044F0F8EC1EF041C0D7
:1018B0008BF042C08CF043C08DF044C08EF08BC0E2
:1018C00001F08CC002F08DC003F08EC004F034EC47
:1018D00024F001C07DF002C07EF00001EEB973EF8C
:1018E0000CF075EF0CF092EF0CF07D517E11D8A446
:1018F0007CEF0CF07EEF0CF092EF0CF0670E861987
:10190000D8A485EF0CF087EF0CF092EF0CF076BFC7
:101910008EEF0CF08CEF0CF092EF0CF0714B722B01
:10192000DCEF0CF073517411D8A499EF0CF09BEF1D
:101930000CF0C5EF0CF076BFA2EF0CF0A0EF0CF0AE
:10194000C5EF0CF02D0E9725D96E010E9821DA6E99
:101950002E0EDF6E974B982B8307D8A08407000EBE
:10196000746F010E736FC5EF0CF02D0E9725D96EB5
:10197000010E9821DA6E300EDF6E974B982B83079D
:10198000D8A084077107D8A0720771517211D8A42A
:10199000CCEF0CF0CEEF0CF0B5EF0CF02D0E972540
:1019A000D96E010E9821DA6E7D51300FDF6E974BA4
:1019B000982B8307D8A0840787C028F088C029F017
:1019C00089C02AF08AC02BF099C013F09AC014F095
:1019D0009BC015F09CC016F08BC00FF08CC010F0AF
:1019E0008DC011F08EC012F0A4EC17F00FC02CF0D7
:1019F00010C02DF011C02EF012C02FF02FEC2BF0E4
:101A000028C087F029C088F02AC089F02BC08AF04E
:101A100099C028F09AC029F09BC02AF09CC02BF0F6
:101A2000000E2C6E000E2D6E200E2E6E410E2F6EAF
:101A300087EC1BF028C099F029C09AF02AC09BF0CF
:101A40002BC09CF000017507D8A076078F4B902B18
:101A500077518F5D9051800A606F7851800A60598C
:101A6000D8B035EF0DF037EF0DF045EF0DF098BF22
:101A700043EF0DF0985109E14B0E975DD8A043EF6D
:101A80000DF045EF0DF03BEF0CF073517411D8A43D
:101A90004CEF0DF04EEF0DF05FEF0DF0EEA953EFB0
:101AA0000DF055EF0DF05FEF0DF02D0E9725D96E6F
:101AB000010E9821DA6E2E0EDF6E974B982B2D0EAD
:101AC0009725D96E010E9821DA6E000EDF6E650E35
:101AD0008519D8A46EEF0DF070EF0DF0CAEF08F085
:101AE000000E906F4F0E8F6F2D0E8F25D96E010E49
:101AF0009021DA6E000EDF6E000E806F000E7F6F99
:101B000096BF87EF0DF085EF0DF08FEF0DF0000E13
:101B1000806F010E7F6F956D961FD8B0962B000ECB
:101B2000826F020E816FC0EF0DF08F07D8A0900773
:101B30002D0E8F25D96E010E9021DA6E95C001F021
:101B400096C002F0000E046E0A0E036E81EC28F0BF
:101B50000150300FDF6E95C001F096C002F0000E0C
:101B6000046E0A0E036EC2EC27F001C095F002C0AD
:101B700096F000018107D8A082078307D8A08407C8
:101B800095519611D8A4C7EF0DF0C9EF0DF095EF60
:101B90000DF082BFD6EF0DF0825106E18105D8B07D
:101BA000D4EF0DF0D6EF0DF095EF0DF08F07D8A024
:101BB00090077F518011D8A4E0EF0DF0E2EF0DF017
:101BC000E8EF0DF0000E6C6F2B0E6B6FECEF0DF06D
:101BD000000E6C6F2D0E6B6F2D0E8F25D96E010EC2
:101BE0009021DA6E6BC0DFFF8307D8A084078F07D0
:101BF000D8A09007BF0E606FFF0E616F5B50626FE1
:101C0000636B605162276151632363510AE11A0ECD
:101C1000625DD8A00EEF0EF011EF0EF0010E12EF84
:101C20000EF0000E6F6F706B6F517011D8A41BEF28
:101C30000EF01DEF0EF023EF0EF0000E6E6F650E2E
:101C40006D6F27EF0EF0000E6E6F450E6D6F2D0E4F
:101C50008F25D96E010E9021DA6E6DC0DFFF8307EC
:101C6000D8A084072D0E9725016E010E9821026ED3
:101C70002D0E8F25036E010E9021046E8AEC2AF042
:101C8000CAEF08F012009FC0D9FFA0C0DAFFDECF74
:101C9000F6FFDDCFF7FF000EF86E0800F550250ABD
:101CA000D8A455EF0EF057EF0EF0AFEF10F09FC035
:101CB000D9FFA0C0DAFFDE2A000EDD22000E0001EF
:101CC000EB6F000EEA6FEAC0EEF0EBC0EFF0EC69EC
:101CD000ED699FC0D9FFA0C0DAFFDECFF6FFDDCFF0
:101CE000F7FF000EF86E0800F5502E0AD8A47BEF1F
:101CF0000EF07DEF0EF0FFEF0EF0000EED6F000E18
:101D0000EC6F9FC0D9FFA0C0DAFFDE2A000EDD22F3
:101D10009FC0D9FFA0C0DAFFDECFF6FFDDCFF7FF0F
:101D2000000EF86E0800F5502A0AD8A49AEF0EF0BB
:101D30009CEF0EF0B9EF0EF09FC0D9FFA0C0DAFF04
:101D4000DE2A000EDD22A1C0D9FFA2C0DAFFDFCF5C
:101D5000A3F0020EDE26DFCFA4F0000EDD22A3C02A
:101D6000D9FFA4C0DAFFDECFECF0DDCFEDF0FFEF5E
:101D70000EF09FC0D9FFA0C0DAFFDECF08F0DDCFA4
:101D800009F0B7EC21F008C0ECF009C0EDF0D0EF9D
:101D90000EF09FC0D9FFA0C0DAFFDE2A000EDD22C0
:101DA000D00E0001A36FFF0EA46F9FC0D9FFA0C08B
:101DB000DAFFDECFF6FFDDCFF7FF000EF86E08008A
:101DC000F550A56FA66BA351A527A451A623A65134
:101DD0000AE10A0EA55DD8A0F0EF0EF0F3EF0EF0C9
:101DE000010EF4EF0EF0000EA76FA86BA751A8111B
:101DF000D8A4FDEF0EF0FFEF0EF0C9EF0EF09FC07C
:101E0000D9FFA0C0DAFFDECFF6FFDDCFF7FF000E6F
:101E1000F86E0800F550076E086A5AEC2AF0075071
:101E20000001AF6FAF51D8B418EF0FF01AEF0FF0F9
:101E300058EF0FF09FC0D9FFA0C0DAFFDECFA3F0AC
:101E4000DDCFA4F0010EA327000EA423A3C0F6FF4C
:101E5000A4C0F7FF000EF86E0800F550076E086A80
:101E60005AEC2AF007500001B06FB051D8B43BEFE4
:101E70000FF03DEF0FF058EF0FF09FC0D9FFA0C05B
:101E8000DAFFDECFA3F0DDCFA4F0020EA327000E11
:101E9000A423A3C0F6FFA4C0F7FF000EF86E08004D
:101EA000F550076E086A5AEC2AF007500001B16F2E
:101EB0009FC0D9FFA0C0DAFFDECFF6FFDDCFF7FF6E
:101EC000000EF86E0800F550630AD8A46AEF0FF010
:101ED0006CEF0FF093EF0FF09FC0D9FFA0C0DAFFB7
:101EE000DE2A000EDD22A1C0D9FFA2C0DAFFDFCFBB
:101EF000A3F0020EDE26DFCFA4F0000EDD22A3C089
:101F0000D9FFA4C0DAFFDF50B26F9DC00AF09EC0B7
:101F10000BF0B2C00CF029EC26F00AC09DF00BC00B
:101F20009EF0CCEF10F0660EAF19D8A49AEF0FF028
:101F30009CEF0FF0DEEF0FF09FC0D9FFA0C0DAFFDB
:101F4000DECFF6FFDDCFF7FF000EF86E0800F5CF0D
:101F5000B2F09FC0D9FFA0C0DAFFDE2A000EDD225A
:101F6000A1C0D9FFA2C0DAFFDFCFA3F0040EDE26A6
:101F7000DFCFA4F0000EDD22A3C0D9FFA4C0DAFF9A
:101F8000DECFABF0DECFACF0DECFADF0DECFAEF02B
:101F90009DC055F09EC056F0ABC057F0ACC058F095
:101FA000ADC059F0AEC05AF0B2C05BF017EC08F00B
:101FB00055C09DF056C09EF0CCEF10F0AF0E016EF4
:101FC000000E026E2A0E036E100E046E000E066ED8
:101FD000020E056EB8EC25F001500210D8A4F3EF04
:101FE0000FF0F5EF0FF075EF10F09FC0D9FFA0C014
:101FF000DAFFDECFA3F0DDCFA4F0010E0001A327AE
:10200000000EA423A3C0F6FFA4C0F7FF000EF86ED5
:102010000800F5CFB2F0BF0EA36FFF0EA46F9FC0F4
:10202000D9FFA0C0DAFFDECFF6FFDDCFF7FF000E4D
:10203000F86E0800F550A56FA66BA351A527A45113
:10204000A623A6510AE11A0EA55DD8A02AEF10F02A
:102050002DEF10F0010E2EEF10F0000EA96FAA6BFD
:10206000A951AA11D8B437EF10F039EF10F053EF9F
:1020700010F0A1C0D9FFA2C0DAFFDFCFA3F0040E99
:10208000DE26DFCFA4F0000EDD22A3C0D9FFA4C05E
:10209000DAFFDECFABF0DECFACF0DECFADF0DECFDF
:1020A000AEF06BEF10F0A1C0D9FFA2C0DAFFDFCF16
:1020B000A3F0040EDE26DFCFA4F0000EDD22A3C0C5
:1020C000D9FFA4C0DAFFDECFABF0DECFACF0DECFBD
:1020D000ADF0DECFAEF0020E9FC0D9FFA0C0DAFF98
:1020E000DE26000EDD22C8EF0FF09FC0D9FFA0C092
:1020F000DAFFDECFF6FFDDCFF7FF000EF86E080047
:10210000F550250AD8A487EF10F089EF10F0A1EF61
:1021100010F09FC0D9FFA0C0DAFFDE2A000EDD223A
:10212000000E026E250E016E9DC003F09EC004F0ED
:10213000FAEC26F0000E00019E6F010E9D6FCCEFB1
:1021400010F09FC0D9FFA0C0DAFFDE2A000EDD220A
:10215000000E00019E6F000E9D6FCCEF10F09FC02F
:10216000D9FFA0C0DAFFDECFF6FFDDCFF7FF000E0C
:10217000F86E0800F550016E026A9DC003F09EC023
:1021800004F0FAEC26F09FC0D9FFA0C0DAFFDE2AE7
:10219000000EDD229AEF10F012000101CA51800BEF
:1021A000D36FCA51CA25D56FC9AFD9EF10F0DBEF95
:1021B00010F0DCEF10F0D581D551D8B4E2EF10F07B
:1021C000E4EF10F0F9EF10F0D529D8A4EAEF10F001
:1021D000ECEF10F0F4EF10F0000EC76F000EC86FB8
:1021E000000EC96F000ECA6FC98F000ECA6F01EFD3
:1021F00011F0000EC76F000EC86F000EC96F000E01
:10220000CA6FCE51800BD46FD351D419D8B40BEF11
:1022100011F00DEF11F00EEF11F0D38DCE51CE2550
:10222000D46FCDAF16EF11F018EF11F019EF11F0D8
:10223000D481D451D8B41FEF11F021EF11F036EF53
:1022400011F0D429D8A427EF11F029EF11F031EFC4
:1022500011F0000ECB6F000ECC6F000ECD6F000E94
:10226000CE6FCD8F000ECE6F3EEF11F0000ECB6F14
:10227000000ECC6F000ECD6F000ECE6FD551D45D29
:10228000D8B045EF11F047EF11F06EEF11F0D3AD7C
:102290004CEF11F04EEF11F050EF11F0800ED31B08
:1022A000D5C1D6F1D4C1D5F1D6C1D4F1C7C1D6F1CB
:1022B000CBC1C7F1D6C1CBF1C8C1D6F1CCC1C8F1F1
:1022C000D6C1CCF1C9C1D6F1CDC1C9F1D6C1CDF1CC
:1022D000CAC1D6F1CEC1CAF1D6C1CEF1000ED66FB9
:1022E000D551D4C1CFF1D06BCF5F000ED05BD0BF42
:1022F00083EF11F0D05109E11A0ECF5DD8A083EF22
:1023000011F085EF11F0BCEF11F0C751C811C911E0
:10231000CA11D8A48EEF11F091EF11F0010E92EFD7
:1023200011F0000ED66F000EC76F000EC86F000EC2
:10233000C96F000ECA6FD4C1D5F1C5EF11F0D6A197
:10234000A4EF11F0A6EF11F0ACEF11F0D890D63158
:102350000109D66FAEEF11F0D890D633C7A1B3EF15
:1023600011F0B5EF11F0B6EF11F0D68FCA35CA33C0
:10237000C933C833C733D52BD451D55DD8A0C3EFEB
:1023800011F0C5EF11F09FEF11F0D3BDCAEF11F0BE
:10239000CCEF11F00CEF12F0D551D8A4D2EF11F020
:1023A000D4EF11F0DEEF11F0000EC76F000EC86F12
:1023B000000EC96F000ECA6F2DEF13F0CB51C72767
:1023C000CC51C823CD51C923CE51CA23CAA1EBEFAA
:1023D00011F0EDEF11F099EF12F0D6A1F2EF11F03C
:1023E000F4EF11F0FAEF11F0D890D6310109D66F61
:1023F000FCEF11F0D890D633C7A101EF12F003EF34
:1024000012F004EF12F0D68FCA35CA33C933C8337D
:10241000C733D52B99EF12F0CB51C75DCC51C859BA
:10242000CD51C959CA51800ACF6FCE51800ACF59B8
:10243000D8B01DEF12F01FEF12F04AEF12F0C751A3
:10244000CB5DCF6FC851CC59D06FC951CD59D16F29
:10245000CA51CE59D26FFF0ECF25C76FFF0ED021C4
:10246000C86FFF0ED121C96FFF0ED221CA6F800E37
:10247000D31BD66DD651D8A440EF12F042EF12F024
:1024800052EF12F0010EC727000EC823C923CA233A
:1024900052EF12F0CB51C75FCC51C85BCD51C95B35
:1024A000CE51CA5BC751C811C911CA11D8A45BEF7C
:1024B00012F05DEF12F092EF12F0D651D8A463EF54
:1024C00012F065EF12F092EF12F0000EC76F000EDF
:1024D000C86F000EC96F000ECA6F2DEF13F0D890B1
:1024E000C737C837C937CA37D6AF79EF12F07BEF95
:1024F00012F07CEF12F0C781D6A181EF12F083EFCA
:1025000012F087EF12F0D880D63789EF12F0D8900A
:10251000D637D551D8B48FEF12F091EF12F092EF79
:1025200012F0D507C9AF97EF12F099EF12F06FEFE5
:1025300012F0000ED46FD6AFA0EF12F0A2EF12F09F
:10254000BAEF12F0D6C1CFF17F0ECF17D8B4ABEFF0
:1025500012F0ADEF12F0B1EF12F0010ED46FBAEF3E
:1025600012F0C7A1B6EF12F0B8EF12F0BAEF12F006
:10257000ADEF12F0D451D8B4C0EF12F0C2EF12F0A8
:10258000EDEF12F0010EC727000EC823C923CA239E
:10259000CAA1CDEF12F0CFEF12F0EDEF12F0C7C1EC
:1025A000CFF1C8C1D0F1C9C1D1F1CAC1D2F1D23580
:1025B000D233D133D033CF33CFC1C7F1D0C1C8F17B
:1025C000D1C1C9F1D2C1CAF1D529D8B4EAEF12F00C
:1025D000ECEF12F0EDEF12F0D52BD529D8B4F3EFD4
:1025E00012F0F5EF12F0FDEF12F0D551D8A4FBEF89
:1025F00012F0FDEF12F00FEF13F0000EC76F000E98
:10260000C86F000EC96F000ECA6FD551D8A40BEF6A
:1026100013F00DEF13F00FEF13F0000ED36FD5A1F1
:1026200014EF13F016EF13F019EF13F0C98F1AEF30
:1026300013F0C99FD890D531CA6FD3AF22EF13F0F2
:1026400024EF13F025EF13F0CA8FC7C1C7F1C8C13B
:10265000C8F1C9C1C9F1CAC1CAF112000450800B46
:102660000D6E045004240F6E03AE39EF13F03BEFF0
:1026700013F03CEF13F00F800F50D8B442EF13F07B
:1026800044EF13F059EF13F00F28D8A44AEF13F0DA
:102690004CEF13F054EF13F0000E016E000E026EBB
:1026A000000E036E000E046E038E000E046E61EFCA
:1026B00013F0000E016E000E026E000E036E000E8F
:1026C000046E0850800B0E6E0D500E18D8B46BEFD0
:1026D00013F06DEF13F06EEF13F00D8C085008241B
:1026E0000E6E07AE76EF13F078EF13F079EF13F07C
:1026F0000E800E50D8B47FEF13F081EF13F096EFF9
:1027000013F00E28D8A487EF13F089EF13F091EFA0
:1027100013F0000E056E000E066E000E076E000E22
:10272000086E078E000E086E9EEF13F0000E056E09
:10273000000E066E000E076E000E086E0F500E5C47
:10274000D8B0A5EF13F0A7EF13F0CEEF13F00DAC58
:10275000ACEF13F0AEEF13F0B0EF13F0800E0D1AE4
:102760000FC010F00EC00FF010C00EF001C010F03E
:1027700005C001F010C005F002C010F006C002F064
:1027800010C006F003C010F007C003F010C007F03F
:1027900004C010F008C004F010C008F0000E106E65
:1027A0000F500EC009F00A6A095E000E0A5A0ABEEE
:1027B000E3EF13F00A5009E11A0E095CD8A0E3EF29
:1027C00013F0E5EF13F01CEF14F0015002100310AA
:1027D0000410D8A4EEEF13F0F1EF13F0010EF2EFB6
:1027E00013F0000E106E000E016E000E026E000E51
:1027F000036E000E046E0EC00FF025EF14F010A053
:1028000004EF14F006EF14F00CEF14F0D890103031
:102810000109106E0EEF14F0D890103201A013EFE2
:1028200014F015EF14F016EF14F0108E0434043287
:102830000332023201320F2A0E500F5CD8A023EF70
:1028400014F025EF14F0FFEF13F00DBC2AEF14F095
:102850002CEF14F06CEF14F00F50D8A432EF14F0FA
:1028600034EF14F03EEF14F0000E016E000E026E15
:10287000000E036E000E046E8DEF15F0055001265C
:1028800006500222075003220850042204A04BEFF6
:1028900014F04DEF14F0F9EF14F010A052EF14F013
:1028A00054EF14F05AEF14F0D89010300109106E64
:1028B0005CEF14F0D890103201A061EF14F063EFD8
:1028C00014F064EF14F0108E043404320332023238
:1028D00001320F2AF9EF14F00550015C065002583E
:1028E000075003580450800A096E0850800A09589E
:1028F000D8B07DEF14F07FEF14F0AAEF14F0015080
:10290000055C096E025006580A6E035007580B6E9C
:10291000045008580C6EFF0E0924016EFF0E0A20A9
:10292000026EFF0E0B20036EFF0E0C20046E800E55
:102930000D1A106C1050D8A4A0EF14F0A2EF14F0F0
:10294000B2EF14F0010E0126000E0222032204222F
:10295000B2EF14F00550015E0650025A0750035AB8
:102960000850045A0150021003100410D8A4BBEF01
:1029700014F0BDEF14F0F2EF14F01050D8A4C3EF30
:1029800014F0C5EF14F0F2EF14F0000E016E000E1B
:10299000026E000E036E000E046E8DEF15F0D890DF
:1029A000013602360336043610AED9EF14F0DBEFF1
:1029B00014F0DCEF14F0018010A0E1EF14F0E3EF6D
:1029C00014F0E7EF14F0D8801036E9EF14F0D89047
:1029D00010360F50D8B4EFEF14F0F1EF14F0F2EF1F
:1029E00014F00F0603AEF7EF14F0F9EF14F0CFEF89
:1029F00014F0000E0E6E10AE00EF15F002EF15F0A1
:102A00001AEF15F010C009F07F0E0916D8B40BEFBD
:102A100015F00DEF15F011EF15F0010E0E6E1AEF17
:102A200015F001A016EF15F018EF15F01AEF15F0DC
:102A30000DEF15F00E50D8B420EF15F022EF15F081
:102A40004DEF15F0010E0126000E02220322042292
:102A500004A02DEF15F02FEF15F04DEF15F001C08C
:102A600009F002C00AF003C00BF004C00CF00C34F3
:102A70000C320B320A32093209C001F00AC002F0EE
:102A80000BC003F00CC004F00F28D8B44AEF15F0C7
:102A90004CEF15F04DEF15F00F2A0F28D8B453EF77
:102AA00015F055EF15F05DEF15F00F50D8A45BEF62
:102AB00015F05DEF15F06FEF15F0000E016E000ED2
:102AC000026E000E036E000E046E0F50D8A46BEF62
:102AD00015F06DEF15F06FEF15F0000E0D6E0FA0F5
:102AE00074EF15F076EF15F079EF15F0038E7AEFAD
:102AF00015F0039ED8900F30046E0DAE82EF15F0E6
:102B000084EF15F085EF15F0048E01C001F002C0CE
:102B100002F003C003F004C004F012000101B1513F
:102B2000800BBA6FB151B125C06FB0AF9AEF15F0FD
:102B30009CEF15F09DEF15F0C081C051D8B4A3EF04
:102B400015F0A5EF15F0B8EF15F0C029D8A4ABEF3C
:102B500015F0ADEF15F0B5EF15F0000EAE6F000EED
:102B6000AF6F000EB06F000EB16FB08FC0EF15F0F9
:102B7000000EAE6F000EAF6F000EB06F000EB16FA3
:102B8000B551800BBA1BB551B525BF6FB4AFCBEFB4
:102B900015F0CDEF15F0CEEF15F0BF81BF51D8B4D1
:102BA000D4EF15F0D6EF15F0E9EF15F0BF29D8A452
:102BB000DCEF15F0DEEF15F0E6EF15F0000EB26F6A
:102BC000000EB36F000EB46F000EB56FB48FF1EF4F
:102BD00015F0000EB26F000EB36F000EB46F000E52
:102BE000B56FBF51D8B4F7EF15F0F9EF15F001EF5D
:102BF00016F0C051D8A4FFEF15F001EF16F00BEF5F
:102C000016F0000EAE6F000EAF6F000EB06F000E2C
:102C1000B16FA3EF17F0B451AE03F3CFC5F1F4CF0A
:102C2000C6F1C551BB6FBC6BBD6BBE6BC651C16FEE
:102C3000C26BC36BC46BB351AF03F3CFC5F1F4CF19
:102C4000C6F1C551BB27000EBC23BD23BE23C65110
:102C5000C127000EC223C323C423B251B003F3CF54
:102C6000C5F1F4CFC6F1C551BB27000EBC23BD236F
:102C7000BE23C651C127000EC223C323C423BDC136
:102C8000BEF1BCC1BDF1BBC1BCF1BB6BB251AF0366
:102C9000F3CFC5F1F4CFC6F1C551BB27C651BC2354
:102CA000000EBD23000EBE23B351AE03F3CFC5F11A
:102CB000F4CFC6F1C551BB27C651BC23000EBD23BE
:102CC000000EBE23BDC1BEF1BCC1BDF1BBC1BCF194
:102CD000BB6BB251AE03F3CFC5F1F4CFC6F1C55112
:102CE000BB27C651BC23000EBD23000EBE23B4512A
:102CF000AF03F3CFC5F1F4CFC6F1C551C127C6511B
:102D0000C223000EC323000EC423B351B003F3CF7C
:102D1000C5F1F4CFC6F1C551C127C651C223000E7B
:102D2000C323000EC423B451B003F3CFC5F1F4CFD5
:102D3000C6F1C551B66FC651B76FB86BB96BB8C1A4
:102D4000B9F1B7C1B8F1B6C1B7F1B66BB651C12789
:102D5000B751C223B851C323B951C423BBC1B6F183
:102D6000BCC1B7F1BDC1B8F1BEC1B9F1190EBEEF1A
:102D700016F0D890B933B833B733B633E82EB9EF7D
:102D800016F0B651C127B751C223B851C323B95168
:102D9000C423BDC1BEF1BCC1BDF1BBC1BCF1BB6BA5
:102DA000BF51C0C1B6F1B76BB627000EB723820E74
:102DB000B625C56FFF0EB721C66FF4EF16F0D89099
:102DC000C137C237C337C437BEAFE9EF16F0EBEFF8
:102DD00016F0ECEF16F0C181D890BB37BC37BD3789
:102DE000BE37C507D8A0C607C3AFF9EF16F0FBEF93
:102DF00016F0DFEF16F0000EBF6FBEAF02EF17F058
:102E000004EF17F028EF17F0FF0EBB15B66FFF0E9B
:102E1000BC15B76FFF0EBD15B86F7F0EBE15B96F2D
:102E2000B651B711B811B911D8B419EF17F01BEF9B
:102E300017F01FEF17F0010EBF6F28EF17F0C1A1B9
:102E400024EF17F026EF17F028EF17F01BEF17F01D
:102E5000BF51D8B42EEF17F030EF17F054EF17F042
:102E6000010EC127000EC223C323C423C4A13BEF1C
:102E700017F03DEF17F054EF17F0C1C1B6F1C2C122
:102E8000B7F1C3C1B8F1C4C1B9F1B935B933B83379
:102E9000B733B633B6C1C1F1B7C1C2F1B8C1C3F1DE
:102EA000B9C1C4F1C54BC62BC6BF5FEF17F0C65101
:102EB00008E1C529D8A05FEF17F061EF17F06BEFBD
:102EC00017F0000EC16F000EC26F800EC36F7F0E31
:102ED000C46F99EF17F0C6BF78EF17F0C65106E13F
:102EE000C505D8B076EF17F078EF17F084EF17F03C
:102EF000000EC16F000EC26F000EC36F000EC46FD4
:102F0000000EBA6F99EF17F0C5C1C0F1FF0EC117DF
:102F1000FF0EC2177F0EC317000EC417C0A193EF98
:102F200017F095EF17F096EF17F0C38FD890C031D8
:102F3000C46FBA51C413C1C1AEF1C2C1AFF1C3C1B4
:102F4000B0F1C4C1B1F112001250800B1B6E1250CF
:102F50001224216E11AEAFEF17F0B1EF17F0B2EF00
:102F600017F021802150D8B4B8EF17F0BAEF17F05E
:102F7000CDEF17F02128D8A4C0EF17F0C2EF17F05B
:102F8000CAEF17F0000E0F6E000E106E000E116EDD
:102F9000000E126E118ED5EF17F0000E0F6E000EA0
:102FA000106E000E116E000E126E1650800B1B1A62
:102FB00016501624206E15AEE0EF17F0E2EF17F072
:102FC000E3EF17F020802050D8B4E9EF17F0EBEFD3
:102FD00017F0FEEF17F02028D8A4F1EF17F0F3EF69
:102FE00017F0FBEF17F0000E136E000E146E000EBC
:102FF000156E000E166E158E06EF18F0000E136E8D
:10300000000E146E000E156E000E166E2050D8B411
:103010000CEF18F00EEF18F016EF18F02150D8A4AE
:1030200014EF18F016EF18F020EF18F0000E0F6EE6
:10303000000E106E000E116E000E126EB8EF19F039
:1030400015500F02F3CF26F0F4CF27F026501C6E58
:103050001D6A1E6A1F6A2750226E236A246A256A27
:1030600014501002F3CF26F0F4CF27F026501C2680
:10307000000E1D221E221F2227502226000E232270
:103080002422252213501102F3CF26F0F4CF27F08B
:1030900026501C26000E1D221E221F2227502226EB
:1030A000000E2322242225221EC01FF01DC01EF068
:1030B0001CC01DF01C6A13501002F3CF26F0F4CF91
:1030C00027F026501C2627501D22000E1E22000E1F
:1030D0001F2214500F02F3CF26F0F4CF27F0265012
:1030E0001C2627501D22000E1E22000E1F221EC06D
:1030F0001FF01DC01EF01CC01DF01C6A13500F02F3
:10310000F3CF26F0F4CF27F026501C2627501D229F
:10311000000E1E22000E1F2215501002F3CF26F0C3
:10312000F4CF27F02650222627502322000E2422F7
:10313000000E252214501102F3CF26F0F4CF27F011
:103140002650222627502322000E2422000E25225C
:1031500015501102F3CF26F0F4CF27F02650176E4A
:103160002750186E196A1A6A19C01AF018C019F097
:1031700017C018F0176A175022261850232219502A
:1031800024221A5025221CC017F01DC018F01EC0A2
:1031900019F01FC01AF0190ED3EF18F0D8901A3298
:1031A000193218321732E82ECEEF18F017502226B7
:1031B00018502322195024221A5025221EC01FF015
:1031C0001DC01EF01CC01DF01C6A205021C017F04D
:1031D000186A1726000E1822820E1724266EFF0E7C
:1031E0001820276E09EF19F0D8902236233624369E
:1031F00025361FAEFEEF18F000EF19F001EF19F0C1
:103200002280D8901C361D361E361F362606D8A0C2
:10321000270624AE0EEF19F010EF19F0F4EF18F0B6
:10322000000E206E1FAE17EF19F019EF19F03DEFE9
:1032300019F0FF0E1C14176EFF0E1D14186EFF0EF2
:103240001E14196E7F0E1F141A6E175018101910C5
:103250001A10D8B42EEF19F030EF19F034EF19F03E
:10326000010E206E3DEF19F022A039EF19F03BEF6F
:1032700019F03DEF19F030EF19F02050D8B443EFBA
:1032800019F045EF19F069EF19F0010E2226000E32
:1032900023222422252225A050EF19F052EF19F005
:1032A00069EF19F022C017F023C018F024C019F0FC
:1032B00025C01AF01A341A3219321832173217C0D0
:1032C00022F018C023F019C024F01AC025F0264AB5
:1032D000272A27BE74EF19F0275008E12628D8A026
:1032E00074EF19F076EF19F080EF19F0000E226EEE
:1032F000000E236E800E246E7F0E256EAEEF19F049
:1033000027BE8DEF19F0275006E12604D8B08BEFC9
:1033100019F08DEF19F099EF19F0000E226E000EE2
:10332000236E000E246E000E256E000E1B6EAEEF97
:1033300019F026C021F0FF0E2216FF0E23167F0E75
:103340002416000E251621A0A8EF19F0AAEF19F0F7
:10335000ABEF19F0248ED8902130256E1B5025122A
:1033600022C00FF023C010F024C011F025C012F0CD
:10337000120001019851800BA56F98519825AC6FF0
:1033800097AFC5EF19F0C7EF19F0C8EF19F0AC818E
:10339000AC51D8B4CEEF19F0D0EF19F0E5EF19F039
:1033A000AC29D8A4D6EF19F0D8EF19F0E0EF19F056
:1033B000000E956F000E966F000E976F000E986FBF
:1033C000978F000E986FEDEF19F0000E956F000EBD
:1033D000966F000E976F000E986F9C51800BA51B87
:1033E0009C519C25AD6F9BAFF8EF19F0FAEF19F0E7
:1033F000FBEF19F0AD81AD51D8B401EF1AF003EF36
:103400001AF018EF1AF0AD29D8A409EF1AF00BEF53
:103410001AF013EF1AF0000E996F000E9A6F000E5B
:103420009B6F000E9C6F9B8F000E9C6F20EF1AF01D
:10343000000E996F000E9A6F000E9B6F000E9C6F2E
:1034400099519A119B119C11D8A429EF1AF02BEFD6
:103450001AF043EF1AF0000E956F000E966F000EF3
:10346000976F000E986F800E97137F0E9813A551DB
:10347000981395C195F196C196F197C197F198C1AE
:1034800098F186EF1BF0AC51D8A449EF1AF04BEF3E
:103490001AF055EF1AF0000E956F000E966F000EA1
:1034A000976F000E986F86EF1BF0AD51ACC19DF188
:1034B0009E6B9D5F000E9E5B7F0E9D25A66F000E8E
:1034C0009E21A76F95C1A1F196C1A2F197C1A3F169
:1034D00098C1A4F1000E956F000E966F000E976FC5
:1034E000000E986F000EA86F000EA96F000EAA6F55
:1034F000000EAB6F000EAD6FB6EF1AF0AD51D8B441
:1035000084EF1AF086EF1AF09DEF1AF0D890A137E9
:10351000A237A337A437D89095379637973798377F
:10352000ABAF95EF1AF097EF1AF098EF1AF095817C
:10353000D890A837A937AA37AB379951A15D9A51CE
:10354000A2599B51A3599C51A459D8A0AAEF1AF093
:10355000ACEF1AF0B5EF1AF0AB8D9951A15F9A510B
:10356000A25B9B51A35B9C51A45BAD2B190EAD6577
:10357000BCEF1AF0BEEF1AF07EEF1AF0A151A211C3
:10358000A311A411D8B4C7EF1AF0C9EF1AF0E1EFF4
:103590001AF0A881E1EF1AF0D8909537963797374F
:1035A0009837ABAFD6EF1AF0D8EF1AF0D9EF1AF080
:1035B0009581D890A837A937AA37AB37A607D8A0E6
:1035C000A70797AFE6EF1AF0E8EF1AF0CCEF1AF082
:1035D000000EAD6FABAFEFEF1AF0F1EF1AF015EF91
:1035E0001BF0FF0EA8159D6FFF0EA9159E6FFF0E15
:1035F000AA159F6F7F0EAB15A06F9D519E119F1155
:10360000A011D8B406EF1BF008EF1BF00CEF1BF075
:10361000010EAD6F15EF1BF095A111EF1BF013EF2D
:103620001BF015EF1BF008EF1BF0AD51D8B41BEFEA
:103630001BF01DEF1BF041EF1BF0010E9527000E54
:1036400096239723982398A128EF1BF02AEF1BF0CD
:1036500041EF1BF095C19DF196C19EF197C19FF17D
:1036600098C1A0F1A035A0339F339E339D339DC1F7
:1036700095F19EC196F19FC197F1A0C198F1A64B1B
:10368000A72BA7BF4CEF1BF0A75108E1A629D8A094
:103690004CEF1BF04EEF1BF059EF1BF0000EA76F25
:1036A000A669000E956F000E966F000E976F000EC4
:1036B000986FA7BF66EF1BF0A75106E1A605D8B02B
:1036C00064EF1BF066EF1BF074EF1BF0000EA76FAA
:1036D000000EA66F000E956F000E966F000E976F8E
:1036E000000E986F000EA56FA6C1ACF1ACA17BEFE8
:1036F0001BF07DEF1BF080EF1BF0978F81EF1BF02D
:10370000979FD890AC31986F37EF1AF012002B507A
:10371000800B386E2B502B243F6E2AAE92EF1BF09D
:1037200094EF1BF095EF1BF03F803F50D8B49BEF18
:103730001BF09DEF1BF0B2EF1BF03F28D8A4A3EFC6
:103740001BF0A5EF1BF0ADEF1BF0000E286E000E76
:10375000296E000E2A6E000E2B6E2A8E000E2B6E26
:10376000BAEF1BF0000E286E000E296E000E2A6EB6
:10377000000E2B6E2F50800B381A2F502F24406EC6
:103780002EAEC5EF1BF0C7EF1BF0C8EF1BF040805B
:103790004050D8B4CEEF1BF0D0EF1BF0E5EF1BF09C
:1037A0004028D8A4D6EF1BF0D8EF1BF0E0EF1BF0B9
:1037B000000E2C6E000E2D6E000E2E6E000E2F6E63
:1037C0002E8E000E2F6EEDEF1BF0000E2C6E000EF5
:1037D0002D6E000E2E6E000E2F6E2C502D102E1002
:1037E0002F10D8A4F6EF1BF0F8EF1BF010EF1CF031
:1037F000000E286E000E296E000E2A6E000E2B6E33
:10380000800E2A127F0E2B1238502B1228C028F05F
:1038100029C029F02AC02AF02BC02BF053EF1DF04D
:103820003F50D8A416EF1CF018EF1CF022EF1CF04C
:10383000000E286E000E296E000E2A6E000E2B6EF2
:1038400053EF1DF040503FC030F0316A305E000E43
:10385000315A7F0E3024396E000E31203A6E28C066
:1038600034F029C035F02AC036F02BC037F0000EF6
:10387000286E000E296E000E2A6E000E2B6E000EB2
:103880003B6E000E3C6E000E3D6E000E3E6E000E56
:10389000406E83EF1CF04050D8B451EF1CF053EF52
:1038A0001CF06AEF1CF0D890343635363636373691
:1038B000D890283629362A362B363EAE62EF1CF0D9
:1038C00064EF1CF065EF1CF02880D8903B363C3646
:1038D0003D363E362C50345C2D5035582E503658DF
:1038E0002F503758D8A077EF1CF079EF1CF082EFFB
:1038F0001CF03E8C2C50345E2D50355A2E50365ACA
:103900002F50375A402A190E406489EF1CF08BEF74
:103910001CF04BEF1CF03450351036103710D8B473
:1039200094EF1CF096EF1CF0AEEF1CF03B80AEEF76
:103930001CF0D890283629362A362B363EAEA3EF17
:103940001CF0A5EF1CF0A6EF1CF02880D8903B36A9
:103950003C363D363E363906D8A03A062AAEB3EF9D
:103960001CF0B5EF1CF099EF1CF0000E406E3EAE5F
:10397000BCEF1CF0BEEF1CF0E2EF1CF0FF0E3B149E
:10398000306EFF0E3C14316EFF0E3D14326E7F0E12
:103990003E14336E3050311032103310D8B4D3EFA0
:1039A0001CF0D5EF1CF0D9EF1CF0010E406EE2EFD9
:1039B0001CF028A0DEEF1CF0E0EF1CF0E2EF1CF0A2
:1039C000D5EF1CF04050D8B4E8EF1CF0EAEF1CF043
:1039D0000EEF1DF0010E2826000E29222A222B228E
:1039E0002BA0F5EF1CF0F7EF1CF00EEF1DF028C038
:1039F00030F029C031F02AC032F02BC033F033341C
:103A0000333232323132303230C028F031C029F016
:103A100032C02AF033C02BF0394A3A2A3ABE19EFA5
:103A20001DF03A5008E13928D8A019EF1DF01BEF1E
:103A30001DF026EF1DF0000E3A6E3968000E286E5C
:103A4000000E296E000E2A6E000E2B6E3ABE33EF6A
:103A50001DF03A5006E13904D8B031EF1DF033EFD4
:103A60001DF041EF1DF0000E3A6E000E396E000E93
:103A7000286E000E296E000E2A6E000E2B6E000EB0
:103A8000386E39C03FF03FA048EF1DF04AEF1DF0FF
:103A90004DEF1DF02A8E4EEF1DF02A9ED8903F303C
:103AA0002B6E04EF1CF01200D9EC28F0F8EC29F092
:103AB0006B848C8C540E0101F76F000E5E6E8C8E41
:103AC0000D0EE82EFED700F08C9E030E0101E06F74
:103AD000080EDF6F770EE82EFED7DF2FFCD7E02F22
:103AE000FAD77D0E0101956F010E966F24EC28F038
:103AF000EBC1D7F1ECC1D8F1EDC1D9F1EEC1DAF1EA
:103B000091C1DBF192C1DCF193C1DDF194C1DEF131
:103B10000BEC2BF0D7C11FF1D8C120F1D9C121F195
:103B2000DAC122F11FC123F120C124F121C125F105
:103B300022C126F16BEF1EF08F80000EB26F000ED7
:103B4000B36F960EB46F420EB56F91C199F192C1E9
:103B50009AF193C19BF194C19CF1000E956F000EF8
:103B6000966F200E976F420E986FB9EC19F095C1C1
:103B7000AEF196C1AFF197C1B0F198C1B1F18EEC41
:103B800015F0AEC1C7F1AFC1C8F1B0C1C9F1B1C143
:103B9000CAF1000E0101CB6F800ECC6FBB0ECD6F52
:103BA000450ECE6FCDEC10F0C7C117F1C8C118F1AA
:103BB000C9C119F1CAC11AF1000E0101956F000EB9
:103BC000966FF00E976F410E986F91C199F192C167
:103BD0009AF193C19BF194C19CF1B1EC23F00101E6
:103BE000D8B0F5EF1DF0F7EF1DF085EF1EF0480E91
:103BF000F76F90929084000E176F800E186FBB0EB7
:103C0000196F450E1A6F85EF1EF08F848F92000E8C
:103C1000EB6F000EEC6F400EED6F400EEE6F000E7E
:103C2000B26F000EB36FAF0EB46F440EB56F000EDF
:103C3000996F000E9A6F200E9B6F420E9C6F91C180
:103C400095F192C196F193C197F194C198F1B9ECB5
:103C500019F095C1AEF196C1AFF197C1B0F198C11D
:103C6000B1F18EEC15F0AEC1C7F1AFC1C8F1B0C172
:103C7000C9F1B1C1CAF1000E0101CB6F000ECC6FCA
:103C8000AF0ECD6F450ECE6FCDEC10F0C7C117F162
:103C9000C8C118F1C9C119F1CAC11AF185EF1EF0E6
:103CA000000E176F800E186FBB0E196F450E1A6F3E
:103CB000290E0101E06F960EDF6F7F0EE82EFED712
:103CC000DF2FFCD7E02FFAD78F908F824C0E0101A7
:103CD000F76F85EF1EF00101F751DF6FE06BE051E8
:103CE000000AD8B476EF1EF085EF1EF0DF51480AC7
:103CF000D8B450EF1EF0040AD8B405EF1EF0180A2D
:103D0000D8B49CEF1DF085EF1EF0000E0101956FF9
:103D1000000E966F700E976F420E986F91C199F1D9
:103D200092C19AF193C19BF194C19CF1B1EC23F043
:103D30000101D8B09EEF1EF0A0EF1EF0A8EF1EF01C
:103D4000000E176FA00E186F8C0E196F450E1A6FAC
:103D5000000E956FA00E966F0C0E976F460E986F23
:103D600017C199F118C19AF119C19BF11AC19CF1BF
:103D7000B1EC23F00101D8B0C0EF1EF0C2EF1EF08D
:103D8000D3EF1EF027C195F128C196F1976B986B80
:103D9000000E01EC20F095C117F196C118F197C102
:103DA00019F198C11AF1030E01012C6FE80E2B6F67
:103DB00017C195F118C196F119C197F11AC198F17F
:103DC0002DEC23F095C129F196C12AF117C195F187
:103DD00018C196F119C197F11AC198F12DEC23F091
:103DE00095C127F196C128F15DEF1DF04EEF00F06F
:103DF000DCC051F0DDC052F0DEC053F0DFC054F043
:103E000041C051F042C052F043C053F044C054F09E
:103E1000810E456EFF0E466E51C047F052C048F00D
:103E200053C049F054C04AF0180E1CEF1FF0D89050
:103E30004A32493248324732E82E17EF1FF04750D6
:103E400045244F6E000E4620506E50BE31EF1FF0DD
:103E5000505009E1170E4F5CD8A031EF1FF033EF3F
:103E60001FF03DEF1FF041C041F042C042F043C09F
:103E700043F044C044F000EF20F050BE42EF1FF08A
:103E800044EF1FF0B4EF1FF04FC045F0FF0E466E39
:103E9000FF0E476E7F0E486E000E496E456653EF6B
:103EA0001FF05BEF1FF04934493248324732463247
:103EB000452E4EEF1FF046C04BF047C04CF048C0B7
:103EC0004DF049C04EF04B505114456E4C505214B9
:103ED000466E4D505314476E4E505414486E455024
:103EE000461047104810D8A478EF1FF07AEF1FF063
:103EF0007CEF1FF033EF1FF051C045F052C046F089
:103F000053C047F054C048F0200E8CEF1FF0D890FB
:103F10004832473246324532E82E87EF1FF045508F
:103F2000461047104810D8B498EF1FF09AEF1FF0D2
:103F3000A2EF1FF04B5051264C5052224D505322AD
:103F40004E5054224B1C456E4C1C466E4D1C476E09
:103F50004E1C486E45505116465052164750531647
:103F600048505416F8EF1FF051C045F052C046F0CB
:103F700053C047F054C048F0200EC4EF1FF0D89053
:103F80004832473246324532E82EBFEF1FF04550E7
:103F9000461047104810D8A4D0EF1FF0D2EF1FF002
:103FA000DCEF1FF0000E516E000E526E000E536ECD
:103FB000000E546EF8EF1FF0D8905134456E523415
:103FC000466E5334476E5434486E45504610471081
:103FD0004810D8B4EEEF1FF0F0EF1FF0F8EF1FF02D
:103FE000000E516E000E526E800E536EBF0E546E58
:103FF00051C041F052C042F053C043F054C044F0AD
:10400000120001019D6F01019D51D8B40AEF20F00B
:104010000CEF20F02EEF20F098BF13EF20F011EFFF
:1040200020F02EEF20F095C199F196C19AF197C139
:104030009BF198C19CF1991F9A1F9B1F9C1F992B64
:10404000000E9A239B239C2399C19FF19AC1A0F152
:104050009BC1A1F19CC1A2F136EF20F095C19FF167
:1040600096C1A0F197C1A1F198C1A2F19551961105
:1040700097119811D8A43FEF20F041EF20F04BEFBB
:1040800020F0000E956F000E966F000E976F000ED9
:10409000986FDCEF20F0960E9E6F55EF20F09E2B70
:1040A000D890A233A133A0339F33000E9F15996F90
:1040B000000EA0159A6F000EA1159B6FFE0EA215A3
:1040C0009C6F99519A119B119C11D8A46AEF20F012
:1040D0006CEF20F04FEF20F07AEF20F09E2B010ED6
:1040E0009F27000EA023A123A223D890A233A1339F
:1040F000A0339F33000E9F15996F000EA0159A6F85
:10410000000EA1159B6FFF0EA2159C6F99519A117D
:104110009B119C11D8A48FEF20F091EF20F06EEF4F
:1041200020F099EF20F09E07D8909F37A037A13755
:10413000A237A1BF9EEF20F0A0EF20F0A8EF20F063
:10414000020E9E61A6EF20F0A8EF20F093EF20F082
:104150009EB1ADEF20F0AFEF20F0B0EF20F0A19FC7
:10416000D8909E339EC199F19A6B9B6B9C6B99C1C1
:104170009CF19B6B9A6B996B99519F139A51A01369
:104180009B51A1139C51A2139D51D8B4CAEF20F0AA
:10419000CCEF20F0D4EF20F098BFD3EF20F0D1EF98
:1041A00020F0D4EF20F0A28F9FC195F1A0C196F12D
:1041B000A1C197F1A2C198F11200096E0950D8B4BB
:1041C000E4EF20F0E6EF20F008EF21F004BEEDEF81
:1041D00020F0EBEF20F008EF21F001C005F002C065
:1041E00006F003C007F004C008F0051E061E071EF7
:1041F000081E052A000E06220722082205C00BF021
:1042000006C00CF007C00DF008C00EF010EF21F052
:1042100001C00BF002C00CF003C00DF004C00EF0A2
:104220000150021003100410D8A419EF21F01BEF65
:1042300021F025EF21F0000E016E000E026E000E3F
:10424000036E000E046EB6EF21F0960E0A6E2FEF8D
:1042500021F00A2AD8900E320D320C320B32000EA9
:104260000B14056E000E0C14066E000E0D14076E76
:10427000FE0E0E14086E0550061007100810D8A484
:1042800044EF21F046EF21F029EF21F054EF21F027
:104290000A2A010E0B26000E0C220D220E22D890A7
:1042A0000E320D320C320B32000E0B14056E000E66
:1042B0000C14066E000E0D14076EFF0E0E14086E21
:1042C0000550061007100810D8A469EF21F06BEF15
:1042D00021F048EF21F073EF21F00A06D8900B3659
:1042E0000C360D360E360DBE78EF21F07AEF21F048
:1042F00082EF21F0020E0A6080EF21F082EF21F0C0
:104300006DEF21F00AB087EF21F089EF21F08AEFFD
:1043100021F00D9ED8900A320AC005F0066A076A9D
:10432000086A05C008F0076A066A056A05500B129C
:1043300006500C1207500D1208500E120950D8B436
:10434000A4EF21F0A6EF21F0AEEF21F004BEADEF17
:1043500021F0ABEF21F0AEEF21F00E8E0BC001F09B
:104360000CC002F00DC003F00EC004F01200000EED
:10437000166E000E156E000E0F6E000E0E6EC3EF61
:1043800021F0084A092A010E146E08C0F6FF09C080
:10439000F7FF000EF86E0800F550200AD8B4D3EFEE
:1043A00021F0D5EF21F0F4EF21F0F70E0A6EFF0EA9
:1043B0000B6E08C0F6FF09C0F7FF000EF86E08008C
:1043C000F5500C6E0D6A0A500C260B500D220D5044
:1043D00009E1050E0C5CD8A0F0EF21F0F2EF21F01E
:1043E000F4EF21F0000E146E14C010F0116A10509A
:1043F0001110D8A4FEEF21F000EF22F0C1EF21F060
:104400000AEF22F0000E0F6E010E0E6E084A092A06
:1044100043EF22F008C0F6FF09C0F7FF000EF86E68
:104420000800F5500A6E0B6A0B50000AD8B41BEF57
:1044300022F043EF22F00A502B0AD8B406EF22F004
:10444000060AD8B402EF22F043EF22F015C001F0C3
:1044500016C002F0000E046E0A0E036E42EC2CF041
:1044600008C0F6FF09C0F7FF000EF86E0800F5500F
:10447000015E000E025A300E0124156E000E02205D
:10448000166E06EF22F0D00E0A6EFF0E0B6E08C0FD
:10449000F6FF09C0F7FF000EF86E0800F5500C6E2D
:1044A0000D6A0A500C260B500D220D500AE10A0E1F
:1044B0000C5CD8A05EEF22F061EF22F0010E62EFFB
:1044C00022F0000E126E136A12501310D8A46BEF74
:1044D00022F06DEF22F026EF22F00E500F10D8A43C
:1044E00074EF22F076EF22F084EF22F015C00AF08C
:1044F00016C00BF00A1E0B1E0A4A0B2A0AC008F04F
:104500000BC009F088EF22F015C008F016C009F0C2
:10451000120081AE8EEF22F090EF22F093EF22F0A6
:10452000D58E2BEF23F0D59EF296000E136E000E63
:10453000146E800E156E3E0E166ED650D7CFCDF08F
:104540000001CE6BCDC0CEF0CD6BCD27000ECE23BB
:10455000CDC001F0CEC002F0000E02BEFF0E036E11
:10456000046E010EDDEC20F001C00FF002C010F06F
:1045700003C011F004C012F0A4EC17F00FC028F033
:1045800010C029F011C02AF012C02BF0000E2C6EC2
:10459000000E2D6E140E2E6E430E2F6E87EC1BF048
:1045A00028C091F129C092F12AC093F12BC094F157
:1045B000010E5E6E010194BFE0EF22F0E2EF22F007
:1045C000FBEF22F0000E286E000E296EC80E2A6E38
:1045D000420E2B6E91C12CF092C12DF093C12EF0A2
:1045E00094C12FF0B7EC24F0D8B0F9EF22F0FBEF34
:1045F00022F003EF23F0E4C091F1E5C092F1E6C0B0
:1046000093F1E7C094F17D0E0001B96F010EBA6F0E
:104610000E0EBB6F100EBC6F000EBE6F800EBD6F16
:1046200091C1BFF092C1C0F093C1C1F094C1C2F07A
:10463000000EC46F000EC36FB9EC2AF091C1E4F014
:1046400092C1E5F093C1E6F094C1E7F0F286000E66
:10465000D76E000ED66EF290120001019735983594
:104660009E6F9E51D8A437EF23F039EF23F043EF2C
:1046700023F0000E956F000E966F000E976F000EE0
:10468000986FB0EF23F095C199F196C19AF197C157
:104690009BF198C19CF1200E53EF23F0D8909C33EE
:1046A0009B339A339933E82E4EEF23F099519D6F47
:1046B000978FFF0E9517FF0E9617FF0E9717000E98
:1046C0009817960E9E5F9EBF6AEF23F068EF23F067
:1046D00080EF23F09E51800A970FD8B072EF23F03D
:1046E00074EF23F076EF23F039EF23F0D89098336E
:1046F0009733963395339E3F76EF23F098EF23F070
:104700001F0E9E6586EF23F088EF23F090EF23F0D5
:1047100039EF23F0D89095379637973798379E071B
:104720009E51D8A496EF23F098EF23F08AEF23F060
:104730009D51D8B49EEF23F0A0EF23F0A8EF23F013
:10474000981F971F961F956D000E96239723982309
:1047500095C195F196C196F197C197F198C198F1DD
:104760001200000E010195159D6F000E96159E6FAB
:10477000800E97159F6F7F0E9815A06F9D519E110B
:104780009F11A011D8A4C7EF23F0C9EF23F0D1EFF8
:1047900023F0000E956F000E966F000E976F000EBF
:1047A000986F000E99159D6F000E9A159E6F800EE2
:1047B0009B159F6F7F0E9C15A06F9D519E119F11A1
:1047C000A011D8A4E6EF23F0E8EF23F0F0EF23F0F8
:1047D000000E996F000E9A6F000E9B6F000E9C6F7B
:1047E00098AFF5EF23F0F7EF23F000EF24F0956D8D
:1047F000961FD8B0962B971FD8B0972B800E98573E
:104800009CAF05EF24F007EF24F010EF24F0996D32
:104810009A1FD8B09A2B9B1FD8B09B2B800E9C5709
:10482000000E951B000E961B000E971B800E981B0A
:10483000000E991B000E9A1B000E9B1B800E9C1BEA
:104840009951955D9A5196599B5197599C519859F8
:10485000D8B02DEF24F02FEF24F032EF24F0D890D1
:1048600033EF24F0D8801200033404340A6E0A5067
:10487000D8A43DEF24F03FEF24F049EF24F0000EE0
:10488000016E000E026E000E036E000E046EB6EF97
:1048900024F001C005F002C006F003C007F004C018
:1048A00008F0200E59EF24F0D89008320732063273
:1048B0000532E82E54EF24F00550096E038EFF0EEA
:1048C0000116FF0E0216FF0E0316000E0416960EBA
:1048D0000A5E0ABE70EF24F06EEF24F086EF24F03B
:1048E0000A50800A970FD8B078EF24F07AEF24F0BE
:1048F0007CEF24F03FEF24F0D890043203320232F0
:1049000001320A3E7CEF24F09EEF24F01F0E0A6471
:104910008CEF24F08EEF24F096EF24F03FEF24F09C
:10492000D89001360236033604360A060A50D8A457
:104930009CEF24F09EEF24F090EF24F00950D8B4BF
:10494000A4EF24F0A6EF24F0AEEF24F0041E031E23
:10495000021E016C000E02220322042201C001F09B
:1049600002C002F003C003F004C004F01200000E05
:104970002814306E000E2914316E800E2A14326E07
:104980007F0E2B14336E3050311032103310D8A4F8
:10499000CCEF24F0CEEF24F0D6EF24F0000E286EFA
:1049A000000E296E000E2A6E000E2B6E000E2C14C7
:1049B000306E000E2D14316E800E2E14326E7F0E6E
:1049C0002F14336E3050311032103310D8A4EBEF67
:1049D00024F0EDEF24F0F5EF24F0000E2C6E000E25
:1049E0002D6E000E2E6E000E2F6E2BAEFAEF24F001
:1049F000FCEF24F005EF25F0286C291ED8B0292AF9
:104A00002A1ED8B02A2A800E2B562FAE0AEF25F088
:104A10000CEF25F015EF25F02C6C2D1ED8B02D2AAB
:104A20002E1ED8B02E2A800E2F56000E281A000EE9
:104A3000291A000E2A1A800E2B1A000E2C1A000EAC
:104A40002D1A000E2E1A800E2F1A2C50285C2D5075
:104A500029582E502A582F502B58D8B032EF25F015
:104A600034EF25F037EF25F0D89038EF25F0D880D7
:104A70001200E0C00BF0E1C00CF0E2C00DF0E3C0AA
:104A80000EF001C00BF002C00CF003C00DF004C02A
:104A90000EF00BC005F00CC006F00DC007F00EC004
:104AA00008F0180E59EF25F0D89008320732063278
:104AB0000532E82E54EF25F00550096E0A6A0950B8
:104AC0000A10D8A466EF25F068EF25F088EF25F0EE
:104AD000D8900B34056E0C34066E0D34076E0E3410
:104AE000086E0550061007100810D8A47AEF25F0BC
:104AF0007CEF25F082EF25F0000E026E020E016EB3
:104B0000B7EF25F0000E026E030E016EB7EF25F031
:104B100009280A10D8A48FEF25F091EF25F0B3EF04
:104B200025F00BC005F00CC006F00DC007F00EC05C
:104B300008F0090ED8900536063607360836E82EF6
:104B40009AEF25F00550061007100810D8B4ABEF07
:104B500025F0AEEF25F0010EAFEF25F0000E016E4F
:104B6000026AB7EF25F0000E026E040E016E12000D
:104B700001C008F002C009F003C00AF004C00BF045
:104B80000506D8A00606052806E10628D8A4CBEF1E
:104B900025F0CDEF25F0DAEF25F0000E026E000EC5
:104BA000016E28EF26F0084A092A0A4A0B2A050650
:104BB000D8A0060608C0D9FF09C0DAFFDF50D8B474
:104BC000E4EF25F0E6EF25F015EF26F00AC0F6FF3A
:104BD0000BC0F7FF000EF86E0800F5500009D8B4BE
:104BE000F4EF25F0F6EF25F015EF26F0055006104E
:104BF000D8B4FDEF25F0FFEF25F015EF26F008C043
:104C0000D9FF09C0DAFFDF50076E0AC0F6FF0BC0FC
:104C1000F7FF000EF86E0800F5500718D8B413EF30
:104C200026F015EF26F0D3EF25F008C0D9FF09C014
:104C3000DAFFDF50076E0AC0F6FF0BC0F7FF000E69
:104C4000F86E0800F550075C016E026AD8A00206F3
:104C500012000001EA51EB11D8A431EF26F033EF36
:104C600026F039EF26F0EAC010F0EBC011F03FEF6C
:104C700026F0FF0EEA25106EFF0EEB21116EEEA15D
:104C800044EF26F046EF26F04FEF26F00CC001F07F
:104C9000026A0AC003F00BC004F0FAEC26F011BE61
:104CA00054EF26F056EF26F058EF26F05CEF26F092
:104CB000000E116E000E106E000E0F6E000E0E6EC6
:104CC0006EEF26F0000E026E200E016E0AC003F099
:104CD0000BC004F0FAEC26F00E4A0F2A10500E5CBE
:104CE0000F50800A0D6E1150800A0D58D8A07BEF2E
:104CF00026F07DEF26F062EF26F00001EEB183EFA3
:104D000026F085EF26F08EEF26F00CC001F0026A47
:104D10000AC003F00BC004F0FAEC26F0010E0E24DA
:104D20000A6E000E0F200B6E1200000E0101966F2E
:104D3000D00E0101956FC90EE82EFED7952FFCD736
:104D400000D08A98E4EF26F0000E8A6E8A8A010E5F
:104D50009625F66EF76A100EF722F86A000EF82212
:104D60000800F550F00B976F97390F0B976F97511D
:104D700081108A6E8A9A340E0101956FF10EE82E29
:104D8000FED7952FFCD700D0000E8A6E8A8A010EBE
:104D900001019625F66EF76A100EF722F86A000EEA
:104DA000F8220800F5500F0B976F975181108A6E0B
:104DB0008A9A340E0101956FF10EE82EFED7952FD9
:104DC000FCD700D00101962B010E01019625F66E4D
:104DD000F76A100EF722F86A000EF8220800F55064
:104DE0000009D8A4F6EF26F0F8EF26F0A4EF26F09D
:104DF0008A88120003500410D8B401EF27F003EFA3
:104E000027F00CEF27F003500410D8A40AEF27F086
:104E10000CEF27F011EF27F0015065EC2CF05EEF5E
:104E200027F020EE04F00350D9260450DA22DE5099
:104E3000DE10D8B41EEF27F020EF27F03BEF27F06D
:104E400020EE04F00350D9260450DA2210EE02F0CE
:104E50000350E1260450E222DE50E65CE650800A70
:104E6000096EDE50800A0958D8B039EF27F03BEFC1
:104E700027F05EEF27F020EE02F00350D926045011
:104E8000DA22DECF05F0DDCF06F003C0D9FF04C083
:104E9000DAFFDECF07F0DDCF08F005500724D96E2A
:104EA00006500820DA6E01C0DFFF20EE02F003504A
:104EB000D9260450DA22DE2A000EDD22120000017B
:104EC000EEA165EF27F067EF27F071EF27F013C031
:104ED0000AF014C00BF011C00CF012C00DF052EC2F
:104EE0002BF016BE76EF27F078EF27F07EEF27F055
:104EF00015C01AF016C01BF082EF27F0000E1B6ED3
:104F0000000E1A6E000E196E000E186E94EF27F048
:104F1000000E026E200E016E11C003F012C004F0EC
:104F2000FAEC26F0184A192A1A50185C1950800A0F
:104F3000176E1B50800A1758D8A0A1EF27F0A3EFD7
:104F400027F088EF27F00001EEB1A9EF27F0ABEFD3
:104F500027F0B5EF27F013C00AF014C00BF011C012
:104F60000CF012C00DF052EC2BF013C001F014C085
:104F700002F0E4EC2BF01A500124116E1B500220B9
:104F8000126E1200000E066E04BECBEF27F0C9EFC2
:104F900027F0D1EF27F0036C041ED8B0042A010ECD
:104FA000066E02BED8EF27F0D6EF27F0DEEF27F02F
:104FB000016C021ED8B0022A010E061A000E086EFD
:104FC000000E076E03500410D8B4E9EF27F0EBEFA2
:104FD00027F013EF28F0010E056EF3EF27F0D890BD
:104FE00003360436052A04AEF8EF27F0FAEF27F06F
:104FF000EFEF27F0D890073608360350015C0450D5
:105000000258D8A006EF28F008EF28F00DEF28F09E
:105010000350015E0450025A0780D89004320332D4
:10502000052EFAEF27F00650D8B419EF28F01BEF41
:1050300028F01FEF28F0076C081ED8B0082A07C018
:1050400001F008C002F01200000E0101986F72EF2B
:1050500028F08A9A8150C00B8A6E9851D8A433EFF9
:1050600028F035EF28F038EF28F08A9839EF28F04B
:105070008A888A8A98519525D96E000E9621DA6E13
:10508000DF50F00B976F97390F0B976F9751811087
:105090008A6E8A9A420EE82EFED700D08150C00B4D
:1050A0008A6E01019851D8A458EF28F05AEF28F0E1
:1050B0005DEF28F08A985EEF28F08A888A8A9851F6
:1050C0009525D96E000E9621DA6EDF500F0B976F83
:1050D000975181108A6E8A9A420EE82EFED700D030
:1050E0000101982B98519525D96E000E9621DA6E04
:1050F000DF50D8A47EEF28F080EF28F029EF28F0C9
:105100001200000E066E02BE8AEF28F088EF28F02B
:1051100090EF28F0016C021ED8B0022A010E066E34
:1051200004BE97EF28F095EF28F09BEF28F0036C72
:10513000041ED8B0042A03500410D8B4A2EF28F0FB
:10514000A4EF28F0C8EF28F0010E056EACEF28F0B0
:10515000D89003360436052A04AEB1EF28F0B3EF39
:1051600028F0A8EF28F00350015C04500258D8A0A2
:10517000BCEF28F0BEEF28F0C2EF28F00350015E2C
:105180000450025AD89004320332052EB3EF28F0AF
:105190000650D8B4CEEF28F0D0EF28F0D4EF28F0A6
:1051A000016C021ED8B0022A01C001F002C002F058
:1051B000120092920F0E956E8C8C9398939AC00E5B
:1051C000936E000E8A6E800E936E959E8A9C8C9EC6
:1051D000979A94949496989098929894000E8F6EC3
:1051E000000ED46E090EAF6E240EAC6E900EAB6E38
:1051F000400E656E95EC26F0080E01019F6F100EB3
:10520000A06F2FEC2CF0080ED56E000ED66EA20EFD
:10521000D76E020ECD6E000ECE6E000ECF6E020E59
:10522000B16E000ECE6E000ECF6E020E6B6E000ED3
:10523000CE6E000ECF6E0A0EBB6E000E0F012D6FEC
:105240000A0E4E6F080E2D6FD08EF190F2869F9051
:10525000A582A382A292A584A384F28CF28E12006E
:10526000000E0114096E000E02140A6E800E031463
:105270000B6E7F0E04140C6E09500A100B100C10EC
:10528000D8A445EF29F047EF29F04FEF29F0000EA1
:10529000016E000E026E000E036E000E046E000E14
:1052A0000514096E000E06140A6E800E07140B6EAC
:1052B0007F0E08140C6E09500A100B100C10D8A4A5
:1052C00064EF29F066EF29F06EEF29F0000E056E0D
:1052D000000E066E000E076E000E086E05500118D7
:1052E0000FE1065002180CE10750031809E10850BD
:1052F0000418D8B47EEF29F080EF29F083EF29F06D
:10530000D89084EF29F0D8801200AA0EF66E580EBD
:10531000F76E000EF86E01EEE1F010EE17F00900E6
:10532000F5CFEEFFE550E150FAE1C10EF66E580EF2
:10533000F76E000EF86E00EEF8F010EE08F00900BF
:10534000F5CFEEFFE550E150FAE1CC0EF66E580EC7
:10535000F76E000EF86E0900F5CF5EF002EE00F079
:10536000470EEE6AE806FDE101EE00F0950EEE6AEA
:10537000E806FDE100EEDCF01C0EEE6AE806FDE159
:105380005F905F92000154EF1DF0B5C05CF0B6C0B5
:105390005DF0000E0001E96F000EE86FE3EF29F009
:1053A000B3C09DF0B4C09EF05C0E9F6F000EA06F66
:1053B000B7C0A1F0B8C0A2F043EC0EF000019D51BF
:1053C000E8279E51E9235CC0F6FF5DC0F7FF000EA1
:1053D000F86E0800F5500009D8A4F1EF29F0F3EFBA
:1053E00029F0D0EF29F0E8C0B3F0E9C0B4F0120022
:1053F000030E01012C6FE80E2B6F1F0E2A6F400E5B
:10540000296FCD80B1808F827A0E0101966FC10E17
:10541000956F810EE82EFED7952FFCD7962FFAD7E1
:1054200000D08F928F80030E01012C6FE80E2B6F3E
:105430000F0E2A6FA00E296F8F90660E0101966FD6
:10544000760E956FC10EE82EFED7952FFCD7962FBE
:10545000FAD7120097C19BF198C19CF195C19DF1BB
:1054600096C19EF101019B51996F9C519A6F9B4B84
:105470009C2B99C1F6FF9AC1F7FF000EF86E9DC1F3
:10548000D9FF9EC1DAFF9D4B9E2B0F0EF76403D010
:105490000800F55005D0F6CFE1FFF7CFE2FFE75067
:1054A000DF6EDF50D8A457EF2AF059EF2AF032EF21
:1054B0002AF01200BF0E096EFF0E0A6E07C00BF035
:1054C00008C00CF009500B260A500C220C500AE1BF
:1054D0001A0E0B5CD8A06FEF2AF072EF2AF0010EC3
:1054E00073EF2AF0000E0D6E0E6A0D500E10D8B438
:1054F0007CEF2AF07EEF2AF085EF2AF0200E0710CD
:10550000076E0850086E89EF2AF007C007F008C040
:1055100008F0120003C007F004C008F001C009F051
:1055200002C00AF00750056E0850066E074A082AA6
:1055300005C0F6FF06C0F7FF000EF86E09C0D9FFE0
:105540000AC0DAFF094A0A2A0F0EF76403D00800DE
:10555000F55005D0F6CFE1FFF7CFE2FFE750DF6E61
:10556000DF50D8A4B6EF2AF0B8EF2AF092EF2AF075
:105570001200BD0E0001C56F000EC66FB9C0C7F0A6
:10558000BAC0C8F0000ECA6F000EC96F000ECC6F13
:10559000000ECB6FC70EB36F000EB46FBBC0B5F07B
:1055A000BCC0B6F0C50EB76F000EB86FC5EC29F0E1
:1055B0000001C951B925D96ECA51BA21DA6E000E5F
:1055C000DF6E1200010E076E200E01180210D8B413
:1055D000ECEF2AF0EEEF2AF007EF2BF0F70E036E58
:1055E000FF0E046E01C005F002C006F00350052650
:1055F00004500622065009E1050E055CD8A003EF11
:105600002BF005EF2BF007EF2BF0000E076E07C015
:1056100001F0026A1200000E0101DB1B000EDC1B10
:10562000000EDD1B800EDE1BD7C1C7F1D8C1C8F14B
:10563000D9C1C9F1DAC1CAF1DBC1CBF1DCC1CCF10E
:10564000DDC1CDF1DEC1CEF1CDEC10F0C7C1D7F197
:10565000C8C1D8F1C9C1D9F1CAC1DAF11200000E2E
:105660002C1A000E2D1A000E2E1A800E2F1A28C08A
:1056700001F029C002F02AC003F02BC004F02CC0B6
:1056800005F02DC006F02EC007F02FC008F02EEC5C
:1056900013F001C028F002C029F003C02AF004C0B2
:1056A0002BF01200000E106E000E0F6E63EF2BF049
:1056B0000EC001F0026A0CC003F00DC004F0FAEC59
:1056C00026F00F4A102A0F500A24D96E10500B20D2
:1056D000DA6EDF500E6E0E50D8A471EF2BF073EF20
:1056E0002BF058EF2BF01200BF0E036EFF0E046E6E
:1056F00001C005F002C006F0035005260450062242
:1057000006500AE11A0E055CD8A089EF2BF08CEF49
:105710002BF0010E8DEF2BF0000E016E026A1200CD
:105720000150021003100410D8B499EF2BF09BEF36
:105730002BF0A3EF2BF0000E011A000E021A000E40
:10574000031A800E041A01C001F002C002F003C067
:1057500003F004C004F01200D00E036EFF0E046EBE
:1057600001C005F002C006F00350052604500622D1
:1057700006500AE10A0E055CD8A0C1EF2BF0C4EF79
:105780002BF0010EC5EF2BF0000E016E026A120025
:1057900082A6CDEF2BF0CFEF2BF0DAEF2BF001014B
:1057A0002B510F014F2701012C510F0150238B96D4
:1057B000E3EF2BF0010129510F014F2701012A517D
:1057C0000F0150238B86120001C003F002C004F0C9
:1057D000ECEF2BF0014A022A01C0D9FF02C0DAFF28
:1057E000DF50D8A4F6EF2BF0F8EF2BF0EAEF2BF018
:1057F0000350015C016E04500258026E1200A4A214
:1058000004EF2CF006EF2CF00BEF2CF019EC2CF041
:10581000A492FFEF2BF0A4A410EF2CF012EF2CF0C9
:1058200017EF2CF0C8EC2BF0A494FFEF2BF05F9255
:10583000110082A41EEF2CF020EF2CF028EF2CF0AA
:1058400001012B51BC262C51BD228B942EEF2CF044
:1058500001012951BC262A51BD228B841200A10EC0
:105860000101956F010E966F9FC197F1A0C198F14C
:105870002AEC2AF0A10E0101956F010E966F24EC1F
:1058800028F0120001500302F3CF05F0F4CF06F028
:1058900001500402F350062602500302F35006267C
:1058A00005C001F006C002F01200800000000000F8
:1058B0000000C03F0000F04117B7D138B81E853D49
:0958C00054CDCC4C3F0000803EA9
:0358CA00120001C8
:020000040020DA
:08000000FFFFFFFFFFFFFFFF00
:020000040030CA
:0E0000001D03727CF98B91FFFFC0FFE0FF40F3
:00000001FF
